{
  "contractName": "ProductStorage",
  "abi": [
    {
      "inputs": [],
      "stateMutability": "nonpayable",
      "type": "constructor"
    },
    {
      "inputs": [],
      "name": "loadProducts",
      "outputs": [],
      "stateMutability": "nonpayable",
      "type": "function"
    },
    {
      "inputs": [],
      "name": "getProducts",
      "outputs": [
        {
          "components": [
            {
              "internalType": "string",
              "name": "name",
              "type": "string"
            },
            {
              "internalType": "uint256",
              "name": "price",
              "type": "uint256"
            },
            {
              "internalType": "bool",
              "name": "isAvailable",
              "type": "bool"
            }
          ],
          "internalType": "struct ProductSt[]",
          "name": "",
          "type": "tuple[]"
        }
      ],
      "stateMutability": "view",
      "type": "function",
      "constant": true
    },
    {
      "inputs": [
        {
          "internalType": "string",
          "name": "name",
          "type": "string"
        }
      ],
      "name": "getProductByName",
      "outputs": [
        {
          "components": [
            {
              "internalType": "string",
              "name": "name",
              "type": "string"
            },
            {
              "internalType": "uint256",
              "name": "price",
              "type": "uint256"
            },
            {
              "internalType": "bool",
              "name": "isAvailable",
              "type": "bool"
            }
          ],
          "internalType": "struct ProductSt",
          "name": "",
          "type": "tuple"
        }
      ],
      "stateMutability": "view",
      "type": "function",
      "constant": true
    },
    {
      "inputs": [],
      "name": "getIsLoaded",
      "outputs": [
        {
          "internalType": "bool",
          "name": "",
          "type": "bool"
        }
      ],
      "stateMutability": "view",
      "type": "function",
      "constant": true
    }
  ],
  "bytecode": "0x608060405234801561001057600080fd5b5033600060016101000a81548173ffffffffffffffffffffffffffffffffffffffff021916908373ffffffffffffffffffffffffffffffffffffffff16021790555060008060006101000a81548160ff02191690831515021790555061128f8061007b6000396000f3fe608060405234801561001057600080fd5b506004361061004c5760003560e01c806310ee573014610051578063baa67a6f1461005b578063c29b2f2014610079578063d4290f8314610097575b600080fd5b6100596100c7565b005b610063610182565b6040516100709190610ab4565b60405180910390f35b610081610198565b60405161008e9190610ca2565b60405180910390f35b6100b160048036038101906100ac9190610e0d565b6102ae565b6040516100be9190610ea6565b60405180910390f35b60008054906101000a900460ff1615610115576040517f08c379a000000000000000000000000000000000000000000000000000000000815260040161010c90610f4b565b60405180910390fd5b60006101236001600261040f565b905080610165576040517f08c379a000000000000000000000000000000000000000000000000000000000815260040161015c90610fdd565b60405180910390fd5b60016000806101000a81548160ff02191690831515021790555050565b60008060009054906101000a900460ff16905090565b60606001805480602002602001604051908101604052809291908181526020016000905b828210156102a557838290600052602060002090600302016040518060600160405290816000820180546101ef9061102c565b80601f016020809104026020016040519081016040528092919081815260200182805461021b9061102c565b80156102685780601f1061023d57610100808354040283529160200191610268565b820191906000526020600020905b81548152906001019060200180831161024b57829003601f168201915b50505050508152602001600182015481526020016002820160009054906101000a900460ff161515151581525050815260200190600101906101bc565b50505050905090565b6102b6610946565b8160006002826040516102c99190611099565b908152602001604051809103902060000180546102e59061102c565b905011610327576040517f08c379a000000000000000000000000000000000000000000000000000000000815260040161031e906110fc565b60405180910390fd5b6002836040516103379190611099565b90815260200160405180910390206040518060600160405290816000820180546103609061102c565b80601f016020809104026020016040519081016040528092919081815260200182805461038c9061102c565b80156103d95780601f106103ae576101008083540402835291602001916103d9565b820191906000526020600020905b8154815290600101906020018083116103bc57829003601f168201915b50505050508152602001600182015481526020016002820160009054906101000a900460ff161515151581525050915050919050565b60008261041a610823565b9080600181540180825580915050600190039060005260206000209060030201600090919091909150600082015181600001908051906020019061045f929190610969565b506020820151816001015560408201518160020160006101000a81548160ff0219169083151502179055505050826001848054905061049e919061114b565b815481106104af576104ae61117f565b5b90600052602060002090600302018284600186805490506104d0919061114b565b815481106104e1576104e061117f565b5b90600052602060002090600302016000016040516104ff9190611242565b908152602001604051809103902060008201816000019080546105219061102c565b61052c9291906109ef565b50600182015481600101556002820160009054906101000a900460ff168160020160006101000a81548160ff02191690831515021790555090505082610570610884565b908060018154018082558091505060019003906000526020600020906003020160009091909190915060008201518160000190805190602001906105b5929190610969565b506020820151816001015560408201518160020160006101000a81548160ff021916908315150217905550505082600184805490506105f4919061114b565b815481106106055761060461117f565b5b9060005260206000209060030201828460018680549050610626919061114b565b815481106106375761063661117f565b5b90600052602060002090600302016000016040516106559190611242565b908152602001604051809103902060008201816000019080546106779061102c565b6106829291906109ef565b50600182015481600101556002820160009054906101000a900460ff168160020160006101000a81548160ff021916908315150217905550905050826106c66108e5565b9080600181540180825580915050600190039060005260206000209060030201600090919091909150600082015181600001908051906020019061070b929190610969565b506020820151816001015560408201518160020160006101000a81548160ff0219169083151502179055505050826001848054905061074a919061114b565b8154811061075b5761075a61117f565b5b906000526020600020906003020182846001868054905061077c919061114b565b8154811061078d5761078c61117f565b5b90600052602060002090600302016000016040516107ab9190611242565b908152602001604051809103902060008201816000019080546107cd9061102c565b6107d89291906109ef565b50600182015481600101556002820160009054906101000a900460ff168160020160006101000a81548160ff0219169083151502179055509050506003838054905014905092915050565b61082b610946565b60405180606001604052806040518060400160405280600481526020017f6d696c6b000000000000000000000000000000000000000000000000000000008152508152602001602a815260200160011515815250905090565b61088c610946565b60405180606001604052806040518060400160405280600581526020017f627265616400000000000000000000000000000000000000000000000000000081525081526020016015815260200160011515815250905090565b6108ed610946565b60405180606001604052806040518060400160405280600681526020017f62757474657200000000000000000000000000000000000000000000000000008152508152602001603c815260200160011515815250905090565b604051806060016040528060608152602001600081526020016000151581525090565b8280546109759061102c565b90600052602060002090601f01602090048101928261099757600085556109de565b82601f106109b057805160ff19168380011785556109de565b828001600101855582156109de579182015b828111156109dd5782518255916020019190600101906109c2565b5b5090506109eb9190610a7c565b5090565b8280546109fb9061102c565b90600052602060002090601f016020900481019282610a1d5760008555610a6b565b82601f10610a2e5780548555610a6b565b82800160010185558215610a6b57600052602060002091601f016020900482015b82811115610a6a578254825591600101919060010190610a4f565b5b509050610a789190610a7c565b5090565b5b80821115610a95576000816000905550600101610a7d565b5090565b60008115159050919050565b610aae81610a99565b82525050565b6000602082019050610ac96000830184610aa5565b92915050565b600081519050919050565b600082825260208201905092915050565b6000819050602082019050919050565b600081519050919050565b600082825260208201905092915050565b60005b83811015610b35578082015181840152602081019050610b1a565b83811115610b44576000848401525b50505050565b6000601f19601f8301169050919050565b6000610b6682610afb565b610b708185610b06565b9350610b80818560208601610b17565b610b8981610b4a565b840191505092915050565b6000819050919050565b610ba781610b94565b82525050565b610bb681610a99565b82525050565b60006060830160008301518482036000860152610bd98282610b5b565b9150506020830151610bee6020860182610b9e565b506040830151610c016040860182610bad565b508091505092915050565b6000610c188383610bbc565b905092915050565b6000602082019050919050565b6000610c3882610acf565b610c428185610ada565b935083602082028501610c5485610aeb565b8060005b85811015610c905784840389528151610c718582610c0c565b9450610c7c83610c20565b925060208a01995050600181019050610c58565b50829750879550505050505092915050565b60006020820190508181036000830152610cbc8184610c2d565b905092915050565b6000604051905090565b600080fd5b600080fd5b600080fd5b600080fd5b7f4e487b7100000000000000000000000000000000000000000000000000000000600052604160045260246000fd5b610d1a82610b4a565b810181811067ffffffffffffffff82111715610d3957610d38610ce2565b5b80604052505050565b6000610d4c610cc4565b9050610d588282610d11565b919050565b600067ffffffffffffffff821115610d7857610d77610ce2565b5b610d8182610b4a565b9050602081019050919050565b82818337600083830152505050565b6000610db0610dab84610d5d565b610d42565b905082815260208101848484011115610dcc57610dcb610cdd565b5b610dd7848285610d8e565b509392505050565b600082601f830112610df457610df3610cd8565b5b8135610e04848260208601610d9d565b91505092915050565b600060208284031215610e2357610e22610cce565b5b600082013567ffffffffffffffff811115610e4157610e40610cd3565b5b610e4d84828501610ddf565b91505092915050565b60006060830160008301518482036000860152610e738282610b5b565b9150506020830151610e886020860182610b9e565b506040830151610e9b6040860182610bad565b508091505092915050565b60006020820190508181036000830152610ec08184610e56565b905092915050565b600082825260208201905092915050565b7f417474656e74696f6e212050726f647563747320616c7265616479206c6f616460008201527f65642e0000000000000000000000000000000000000000000000000000000000602082015250565b6000610f35602383610ec8565b9150610f4082610ed9565b604082019050919050565b60006020820190508181036000830152610f6481610f28565b9050919050565b7f417474656e74696f6e21204661696c656420746f206c6f61642070726f64756360008201527f74732e0000000000000000000000000000000000000000000000000000000000602082015250565b6000610fc7602383610ec8565b9150610fd282610f6b565b604082019050919050565b60006020820190508181036000830152610ff681610fba565b9050919050565b7f4e487b7100000000000000000000000000000000000000000000000000000000600052602260045260246000fd5b6000600282049050600182168061104457607f821691505b60208210810361105757611056610ffd565b5b50919050565b600081905092915050565b600061107382610afb565b61107d818561105d565b935061108d818560208601610b17565b80840191505092915050565b60006110a58284611068565b915081905092915050565b7f417474656e74696f6e212050726f6475637420616273656e742e000000000000600082015250565b60006110e6601a83610ec8565b91506110f1826110b0565b602082019050919050565b60006020820190508181036000830152611115816110d9565b9050919050565b7f4e487b7100000000000000000000000000000000000000000000000000000000600052601160045260246000fd5b600061115682610b94565b915061116183610b94565b9250828210156111745761117361111c565b5b828203905092915050565b7f4e487b7100000000000000000000000000000000000000000000000000000000600052603260045260246000fd5b60008190508160005260206000209050919050565b600081546111d08161102c565b6111da818661105d565b945060018216600081146111f5576001811461120657611239565b60ff19831686528186019350611239565b61120f856111ae565b60005b8381101561123157815481890152600182019150602081019050611212565b838801955050505b50505092915050565b600061124e82846111c3565b91508190509291505056fea2646970667358221220a3584494248f99f4dae836f800869f43b621f60dcc802858b9f8822b0bb1730564736f6c634300080d0033",
  "immutableReferences": {},
  "source": "// SPDX-License-Identifier: MIT\npragma solidity >=0.4.25 <0.9.0;\npragma experimental ABIEncoderV2;\n\nimport \"./struct/ProductSt.sol\";\nimport \"./library/ProductsLib.sol\";\n\ncontract ProductStorage {\n    bool private isLoaded;\n    address private owner;\n\n    ProductSt[] private products;\n    mapping(string => ProductSt) private productsExist;\n\n    constructor(){\n        owner = msg.sender;\n        isLoaded = false;\n    }\n\n    modifier loaded(){\n        require(!isLoaded, \"Attention! Products already loaded.\");\n        _;\n    }\n\n    modifier exist(string memory name){\n        require(bytes(productsExist[name].name).length > 0, \"Attention! Product absent.\");\n        _;\n    }\n\n    function loadProducts() external loaded() {\n\n        bool success = ProductsLib.loadItems(products, productsExist);\n        require(success, \"Attention! Failed to load products.\");\n\n        isLoaded = true;\n    }\n\n    function getProducts() external view returns(ProductSt[] memory){\n        return products;\n    }\n\n    function getProductByName(string memory name) external view exist(name) returns(ProductSt memory){\n        return productsExist[name];\n    }\n\n    function getIsLoaded() external view returns(bool){\n        return isLoaded;\n    }\n}\n",
  "sourcePath": "A:\\OneDrive - ITSTEP\\BlockchainSolidity\\Projects\\20250128_FrontEnd_SolidJS\\product_storage\\contracts\\ProductStorage.sol",
  "compiler": {
    "name": "solc",
    "version": "0.8.13+commit.abaa5c0e.Emscripten.clang"
  },
  "schemaVersion": "3.4.16",
  "updatedAt": "2025-01-29T12:03:28.679Z",
  "networkType": "ethereum",
  "devdoc": {
    "kind": "dev",
    "methods": {},
    "version": 1
  },
  "userdoc": {
    "kind": "user",
    "methods": {},
    "version": 1
  }
}